:0400000034EF12F0D7
:1008000000010000000A00000064000000E803008E
:100810000010270000A086010040420F008096983B
:100820000000E1F50500CA9A3B00803F002041002E
:10083000C842007A44401C4650C347247449971864
:100840004BBCBE4C6B6E4E03155079AD60F34971D5
:1008500000803FCDCC3DD7233C12833AB7D138C678
:100860002737388635C0D633CC2B32708930E7DB5A
:100870002EE53C1E42A20D566F6C746167656D00DB
:10088000252E326620560000420E0001636F000ED6
:100890000001646FD6D3250E00017A19D8B405D0B3
:1008A00000017A5139EC12F0CCD3000E00016A6FCE
:1008B000000E696F40C0F6FF41C0F7FF0800F55019
:1008C0002E0AD8A432D000016A8D404A412A000E77
:1008D0000001796F000E786F1DD078C00FF079C0DD
:1008E00010F0000E126E0A0E116EDAEC11F040C01C
:1008F000F6FF41C0F7FF0800F5500F26000E10224A
:10090000D00E0F240001786FFF0E10200001796FC8
:10091000404A412A40C0F6FF41C0F7FF0800F550A9
:1009200011EC12F0D8A043D0D8D7000E0001796F97
:10093000000E786F00016A893AD000016A8549D0BB
:100940000001785100017911D8B419D00001675124
:100950000001785D0001685100017959D8B00FD0CD
:1009600078C067F079C068F00AD065C0D9FF66C06A
:10097000DAFFDF5039EC12F00001654B662B000105
:100980006707D8A0680700016729EFE1000168291F
:10099000D8B457D3EAD77A0E0001656F000E000174
:1009A000666F000E0001686F010E676FC9D740C007
:1009B000F6FF41C0F7FF404A412A0800F5CF7AF020
:1009C00000017A51000AD8B41200660AD8B4B5D72B
:1009D000E2D7070E00016A15D8B4E9D200016AA96E
:1009E00005D0000E0001796F060E786F63C0D9FF45
:1009F00064C0DAFFDECF75F0DECF76F0DDCF77F0C2
:100A0000030E00016327000E6423000177AF11D0AD
:100A100075C001F076C002F077C003F0EDEC11F084
:100A200001C075F002C076F003C077F0030E00013C
:100A30006913000E0001706F000E6F6F0001755199
:100A40000001761100017711D8B48BD0820E456E6B
:100A5000FF0E466E75C047F076C048F077C049F08B
:100A600078C04AF0100E05D0D8904A324932483248
:100A70004732E82EF9D74750452400016F6F000E2A
:100A800046200001706F00016F07D8A070076FC08B
:100A90000FF070C010F0000E126E030E116EDAEC43
:100AA00011F00FC06FF010C070F06FC007F070C091
:100AB00008F0000E0A6E0A0E096E99EC0FF007C0DE
:100AC0006FF008C070F0000170AF04D000016F0734
:100AD000D8A0700700016F5100082FEC08F024C067
:100AE00071F025C072F026C073F071C015F072C0AD
:100AF00016F073C017F075C018F076C019F077C003
:100B00001AF0C7EC0DF015C071F016C072F017C0E6
:100B100073F071C001F072C002F073C003F0000EF8
:100B2000046E800E056E3F0E066E0BEC0FF0D8B013
:100B300005D000016F07D8A0700713D071C001F075
:100B400072C002F073C003F0000E046E200E056E3A
:100B5000410E066E0BEC0FF0D8A003D000016F4BD6
:100B6000702B000179BF08D0000179511DE10D0EF5
:100B70000001785DD8B018D075C02EF076C02FF087
:100B800077C030F00001785127EC0AF024C031F032
:100B900025C032F026C033F04AEC0BF02EC075F0C1
:100BA0002FC076F030C077F0000170BF08D0000190
:100BB000705126E10A0E00016F5DD8B021D000010E
:100BC00075510001761100017711D8B45BD075C062
:100BD0002BF076C02CF077C02DF04DEC0DF02B50A3
:100BE0002C102D102E10D8A44DD0000170BF4AD06B
:100BF0000001705105E1020E00016F5DD8A042D0E6
:100C000071C001F072C002F073C003F0700E046E88
:100C1000890E056E400E066E0BEC0FF0D8B003D0B7
:100C20000001F70E02D00001F80E6F27FF0E7023AF
:100C300000016F512FEC08F024C071F025C072F054
:100C400026C073F075C001F076C002F077C003F0E3
:100C500071C004F072C005F073C006F020EC0CF017
:100C600001C06BF002C06CF003C06DF004C06EF008
:100C7000000E0001756F000E0001766F000E00017E
:100C8000776F33D075C02BF076C02CF077C02DF085
:100C90004DEC0DF02BC06BF02CC06CF02DC06DF046
:100CA0002EC06EF075C03AF076C03BF077C03CF0D5
:100CB0006BC009F06CC00AF06DC00BF06EC00CF098
:100CC0003BEC11F009C03DF00AC03EF00BC03FF014
:100CD0008BEC11F03AC075F03BC076F03CC077F079
:100CE000000E0001706F000E6F6F010E00017A6F31
:100CF0000A0E00017A19D8B41ED000017A51040DF1
:100D0000010EF324F66E080EF420F76E0900F5507C
:100D100000016B5D0900F55000016C590900F550A8
:100D200000016D590900F55000016E59D8A003D09B
:100D300000017A2BDDD7030E00016915456E000E08
:100D400000016A15466E45504610D8B44AD02D0EA3
:100D500039EC12F046D06BC001F06CC002F06DC0EF
:100D600003F06EC004F000017A51040D010EF3246B
:100D7000F66E080EF420F76E0900F5CF05F00900B5
:100D8000F5CF06F00900F5CF07F00A00F5CF08F01F
:100D9000DBEC0FF001C071F002C072F003C073F021
:100DA00004C074F071C001F072C002F073C003F0AF
:100DB00074C004F00A0E056E000E066E000E076E7B
:100DC000000E086E08EC11F001C071F002C072F064
:100DD00003C073F004C074F000017151300F39EC9E
:100DE00012F000017A0700017A29D8B408D0B3D7ED
:100DF000300E39EC12F000016F07D8A07007000127
:100E000070BF07D000017051F3E100016F05D8B049
:100E1000EFD7000179BF0CD00001795105E1090E2F
:100E20000001785DD8A004D0080E00017A6F02D0CE
:100E300078C07AF000017A510001785F000E00015D
:100E40007ABFFF0E0001795B00017A510001D8B42E
:100E500003D02E0E39EC12F000017A512FEC08F07D
:100E600024C060F025C061F026C062F075C018F0A3
:100E700076C019F077C01AF060C015F061C016F0A6
:100E800062C017F0C7EC0DF015C02BF016C02CF0A7
:100E900017C02DF04DEC0DF02BC06BF02CC06CF09A
:100EA0002DC06DF02EC06EF06DD06BC001F06CC027
:100EB00002F06DC003F06EC004F000017A51040D21
:100EC000010EF324F66E080EF420F76E0900F5CF3C
:100ED00005F00900F5CF06F00900F5CF07F00A008C
:100EE000F5CF08F0DBEC0FF001C071F002C072F03A
:100EF00003C073F004C074F071C001F072C002F05E
:100F000073C003F074C004F00A0E056E000E066E86
:100F1000000E076E000E086E08EC11F001C071F0B3
:100F200002C072F003C073F004C074F0000171518C
:100F3000300F39EC12F06BC001F06CC002F06DC0E4
:100F400003F06EC004F000017A51040D010EF32489
:100F5000F66E080EF420F76E0900F5CF05F00900D3
:100F6000F5CF06F00900F5CF07F00A00F5CF08F03D
:100F700008EC11F001C06BF002C06CF003C06DF022
:100F800004C06EF000017A0700017A29D8B408D0B5
:100F90008CD7300E39EC12F000017807D8A0790711
:100FA0000001785100017911D8B44BD0F2D700017B
:100FB000785100017911D8A40DD000016B510001C6
:100FC0006C1100016D1100016E11D8A403D0000155
:100FD000784B792B800E00017ABF7F0E456E0001A1
:100FE000785100017A5D00017951800A4558D8B0E6
:100FF00003D078C07AF016D000017951800A456E8E
:1010000000017A510001785D800E00017ABF7F0EE9
:101010004558D8B007D000017A510001786F796B3C
:1010200078BF7907030E00016915456E000E0001B7
:101030006A15466E45504610D8B403D02D0E39ECD3
:1010400012F040C0F6FF41C0F7FF404A412A0800B5
:10105000F5CF7AF000017A51D8B412001CD42A6E70
:101060002AAEFBD02A6C2A50800A120FD8A091D049
:10107000000E126E030E116E000E0A6E0A0E096E3D
:10108000000E046E640E036E2A50016E026A01BEE9
:101090000206D0EC10F001C007F002C008F099EC95
:1010A0000FF0090E07240F6E000E0820106EDAEC08
:1010B00011F0500E0F24F66E080E1020F76E090086
:1010C000F5CF18F00900F5CF19F00A00F5CF1AF0A6
:1010D000000E0A6E640E096E2A50076E086A07BE7B
:1010E000080699EC0FF0120E07240F6E000E082070
:1010F000106E000E126E030E116EDAEC11F0500E2F
:101100000F24F66E080E1020F76E0900F5CF15F0CB
:101110000900F5CF16F00A00F5CF17F0C7EC0DF077
:1011200015C027F016C028F017C029F027C015F009
:1011300028C016F029C017F0000E126E030E116EB3
:10114000000E046E0A0E036E2A50016E026A01BE82
:101150000206D0EC10F001C00FF002C010F0DAEC83
:1011600011F0500E0F24F66E080E1020F76E0900D5
:10117000F5CF18F00900F5CF19F00A00F5CF1AF0F5
:10118000C7EC0DF015C024F016C025F017C026F0EE
:1011900012002A50800A750FD8A04DD0000E0A6E9A
:1011A0000A0E096E2A50076E086A07BE080699ECF7
:1011B0000FF0090E07240F6E000E0820106E000EAF
:1011C000126E030E116EDAEC11F0500E0F24F66E53
:1011D000080E1020F76E0900F5CF15F00900F5CFC5
:1011E00016F00A00F5CF17F0000E126E030E116E06
:1011F000000E046E0A0E036E2A50016E026A01BED2
:101200000206D0EC10F001C00FF002C010F0DAECD2
:1012100011F0500E0F24F66E080E1020F76E090024
:10122000F5CF18F00900F5CF19F00A00F5CF1AF044
:10123000C7EC0DF0A7D72A50030D500EF324F66E1D
:10124000080EF420F76E0900F5CF24F00900F5CF61
:1012500025F00A00F5CF26F012002A50800A120F5E
:10126000D8A091D0000E126E030E116E000E0A6E01
:101270000A0E096E000E046E640E036E2A50016E93
:10128000026A01BE0206D0EC10F001C007F002C0F5
:1012900008F099EC0FF0090E07240F6E000E0820DD
:1012A000106EDAEC11F0290E0F24F66E080E1020E5
:1012B000F76E0900F5CF18F00900F5CF19F00A0014
:1012C000F5CF1AF0000E0A6E640E096E2A50076EF2
:1012D000086A07BE080699EC0FF0120E07240F6E7D
:1012E000000E0820106E000E126E030E116EDAEC66
:1012F00011F0290E0F24F66E080E1020F76E09006B
:10130000F5CF15F00900F5CF16F00A00F5CF17F06C
:10131000C7EC0DF015C027F016C028F017C029F053
:1013200027C015F028C016F029C017F0000E126E65
:10133000030E116E000E046E0A0E036E2A50016E2B
:10134000026A01BE0206D0EC10F001C00FF002C02C
:1013500010F0DAEC11F0290E0F24F66E080E1020B2
:10136000F76E0900F5CF18F00900F5CF19F00A0063
:10137000F5CF1AF0C7EC0DF015C024F016C025F01B
:1013800017C026F012002A50800A750FD8A04DD041
:10139000000E0A6E0A0E096E2A50076E086A07BE12
:1013A000080699EC0FF0090E07240F6E000E0820B6
:1013B000106E000E126E030E116EDAEC11F0290E93
:1013C0000F24F66E080E1020F76E0900F5CF15F009
:1013D0000900F5CF16F00A00F5CF17F0000E126ED7
:1013E000030E116E000E046E0A0E036E2A50016E7B
:1013F000026A01BE0206D0EC10F001C00FF002C07C
:1014000010F0DAEC11F0290E0F24F66E080E102001
:10141000F76E0900F5CF18F00900F5CF19F00A00B2
:10142000F5CF1AF0C7EC0DF0A7D72A50030D290EFF
:10143000F324F66E080EF420F76E0900F5CF24F0C1
:101440000900F5CF25F00A00F5CF26F012002D6E29
:101450006D0E2D649FD0000E126E030E116E000EE5
:101460000A6E0A0E096E000E046E640E036E2DC025
:1014700001F0026AD0EC10F001C007F002C008F0E1
:1014800099EC0FF0090E07240F6E000E0820106E65
:10149000DAEC11F0500E0F24F66E080E1020F76EE5
:1014A0000900F5CF18F00900F5CF19F00A00F5CFC3
:1014B0001AF0000E0A6E640E096E2DC007F0086A5D
:1014C00099EC0FF0120E07240F6E000E0820106E1C
:1014D000000E126E030E116EDAEC11F0500E0F2496
:1014E000F66E080E1020F76E0900F5CF15F0090012
:1014F000F5CF16F00A00F5CF17F0C7EC0DF015C0C8
:101500002AF016C02BF017C02CF0000E126E030E3E
:10151000116E000E046E0A0E036E2DC001F0026AF9
:10152000D0EC10F001C00FF002C010F0DAEC11F0B6
:10153000500E0F24F66E080E1020F76E0900F5CF3E
:1015400018F00900F5CF19F00A00F5CF1AF02AC0FB
:1015500015F02BC016F02CC017F0C7EC0DF015C01D
:1015600027F016C028F017C029F027C015F028C0B2
:1015700016F029C017F0000E186E000E196E3F0EFF
:101580001A6EC7EC0DF015C024F016C025F017C078
:1015900026F012000A0E2D645DD0000E126E030EAE
:1015A000116E000E046E0A0E036E2DC001F0026A69
:1015B000D0EC10F001C00FF002C010F0DAEC11F026
:1015C000500E0F24F66E080E1020F76E0900F5CFAE
:1015D00018F00900F5CF19F00A00F5CF1AF0000E47
:1015E0000A6E0A0E096E2DC007F0086A99EC0FF01A
:1015F000090E07240F6E000E0820106E000E126EEA
:10160000030E116EDAEC11F0500E0F24F66E080E78
:101610001020F76E0900F5CF15F00900F5CF16F090
:101620000A00F5CF17F0C7EC0DF015C02AF016C070
:101630002BF017C02CF02AC015F02BC016F02CC0D0
:1016400017F0000E186E000E196E3F0E1A6EC7ECE2
:101650000DF099D72D50030D500EF324F66E080EA1
:10166000F420F76E0900F5CF15F00900F5CF16F05C
:101670000A00F5CF17F0000E186E000E196E3F0E1F
:101680001A6EC7EC0DF015C024F016C025F017C077
:1016900026F0120030C034F0356A366A2F34343602
:1016A00001E335803450396E33C034F0356A366A20
:1016B0003234343601E335803450386E3950D8B482
:1016C0000BD03850395CD8B00ED0395000083824CF
:1016D000346E180E346407D031C02EF032C02FF0B3
:1016E00033C030F012003850D8B40BD03950385CC9
:1016F000D8B00ED0385000083924346E180E346437
:1017000007D02EC02EF02FC02FF030C030F01200C6
:10171000060E376E30BE378E33BE378C2F8EFF0EDF
:101720002E16FF0E2F16000E3016328EFF0E3116BB
:10173000FF0E3216000E33163850395CD8B01BD06D
:10174000D890313632363336380639503818D8B456
:101750000DD0370637C034F0070E3416D8B406D093
:10176000EFD7D89030322F322E32392A38503918EC
:10177000D8B41FD0F6D73950385CD8B01AD0D8902A
:101780002E362F363036390639503818D8B40DD0A9
:10179000370637C034F0070E3416D8B406D0EFD76A
:1017A000D890333232323132382A38503918D8A4EE
:1017B000F7D737AE0CD0FF0E2E1AFF0E2F1AFF0EE2
:1017C000301A010E2E26000E2F22000E302237ACCA
:1017D0000CD0FF0E311AFF0E321AFF0E331A010E13
:1017E0003126000E3222000E3322000E376E2E50AC
:1017F00031262F5032223050332233AE0ED0FF0E1E
:10180000311AFF0E321AFF0E331A010E3126000E66
:101810003222000E3322010E376E31C001F032C089
:1018200002F033C003F039C004F037C005F0B4EC67
:101830000EF001C02EF002C02FF003C030F01200F5
:1018400003C007F0086A096A0234073601E308801A
:1018500007500F6E0F50D8A409D0000E016E000E75
:10186000026E000E036E000E046E120006C007F03A
:10187000086A096A0534073601E3088007500E6ECE
:101880000E50D8A409D0000E016E000E026E000E9C
:10189000036E000E046E1200028EFF0E0116FF0E84
:1018A0000216000E0316058EFF0E0416FF0E051617
:1018B000000E0616000E0A6E000E0B6E000E0C6E69
:1018C000000E0D6E7F0E0F5E0E50980F0F5E180EFD
:1018D0000E6ED8900A360B360C360D360450015C6D
:1018E0000550025806500358D8A007D00450015E96
:1018F0000550025A0650035A0A80D8900136023623
:1019000003360E2EE6D70FAE16D00F50800A970F73
:10191000D8B009D0000E016E000E026E000E036EEC
:10192000000E046E1200D8900D320C320B320A32C7
:101930000F3EF9D715D0170E0F640FD0000E016EB1
:10194000000E026E000E036E000E046E1200D890A0
:101950000A360B360C360D360F060F50D8A4F7D7C3
:101960000AC001F00BC002F00CC003F00DC004F07F
:101970001200033404340C6E0C50D8A409D0000EAD
:10198000016E000E026E000E036E000E046E120059
:10199000063407340B6E0B50D8A409D0000E016E2C
:1019A000000E026E000E036E000E046E1200038E17
:1019B000FF0E0116FF0E0216FF0E0316000E041690
:1019C000068EFF0E0416FF0E0516FF0E0616000EFD
:1019D0000716000E076E000E086E000E096E000E50
:1019E0000A6E7F0E0C5E0B50A00F0C5E200E0B6E6D
:1019F000D8900736083609360A360450015C05507F
:101A000002580650035807500458D8A009D0045073
:101A1000015E0550025A0650035A0750045A0780C7
:101A2000D89001360236033604360B2EE1D70CAEC1
:101A300016D00C50800A9F0FD8B009D0000E016E4E
:101A4000000E026E000E036E000E046E1200D8909F
:101A50000A320932083207320C3EF9D715D01F0E70
:101A60000C640FD0000E016E000E026E000E036EAD
:101A7000000E046E1200D8900736083609360A3672
:101A80000C060C50D8A4F7D707C001F008C002F02C
:101A900009C003F00AC004F012002DC02FF0306A14
:101AA000316A2C342F3601E330802F50396E395093
:101AB000D8A409D0000E2B6E000E2C6E000E2D6ED9
:101AC000000E2E6E1200170E2F6E2BC030F02CC0A1
:101AD00031F02DC032F02F28336E04D0D89032323E
:101AE00031323032332EFAD73050346E2C8EFF0E16
:101AF0002B16FF0E2C16000E2D162B50356E2C506B
:101B0000366E2D50376E386A8E0E395E39AE16D06D
:101B10003950800A8F0FD8B009D0000E2B6E000EFE
:101B20002C6E000E2D6E000E2E6E1200D8903832E4
:101B3000373236323532393EF9D715D0170E39647F
:101B40000FD0000E2B6E000E2C6E000E2D6E000EB0
:101B50002E6E1200D890353636363736383639067E
:101B60003950D8A4F7D73450D8B408D0381E371E0F
:101B7000361E356C000E36223722382235C02BF047
:101B800036C02CF037C02DF038C02EF0120017C030
:101B90001BF01C6A1D6A16341B3601E31C801B50A7
:101BA0001E6E1E50D8A407D0000E156E000E166EC5
:101BB000000E176E12001AC01BF01C6A1D6A193441
:101BC0001B3601E31C801B50236E2350D8A407D082
:101BD000000E156E000E166E000E176E12002350CA
:101BE0007B0F1E2617C023F01A50231A800E2316CF
:101BF000168E198EFF0E1816FF0E1916000E1A16E5
:101C0000000E1F6E000E206E000E216E070E226E5B
:101C100015A006D018501F26195020221A50212234
:101C2000D890173216321532D890183619361A361F
:101C3000222EEED7090E226E15A006D018501F26B0
:101C4000195020221A502122D890173216321532FC
:101C5000D890213220321F32222EEED71FC001F041
:101C600020C002F021C003F01EC004F023C005F024
:101C7000B4EC0EF001C015F002C016F003C017F06E
:101C8000120026C02AF02B6A2C6A25342A3601E37A
:101C90002B802A50316E3150D8A407D0000E246E0C
:101CA000000E256E000E266E120029C02AF02B6A47
:101CB0002C6A28342A3601E32B802A50326E3250A7
:101CC000D8A407D0000E246E000E256E000E266EDE
:101CD0001200000E2E6E000E2F6E000E306E32506F
:101CE000890F315E26C032F02950321A800E32162A
:101CF000258EFF0E2416FF0E2516000E2616288EA2
:101D0000FF0E2716FF0E2816000E2916180E2D6E30
:101D1000D8902E362F3630362750245C2850255840
:101D200029502658D8A007D02750245E2850255A7D
:101D30002950265A2E80D8902436253626362D2E28
:101D4000E7D72EC001F02FC002F030C003F031C041
:101D500004F032C005F0B4EC0EF001C024F002C073
:101D600025F003C026F012000450D8B405D001506D
:101D700002100310D8A40CD0000E016E000E026EEB
:101D8000000E036E1200042AD89003320232013290
:101D9000000E0114066E000E0214076EFE0E0314F0
:101DA000086E065007100810D8B40CD0ECD7042ADF
:101DB000010E0126000E0222000E0322D8900332EB
:101DC00002320132000E0114066E000E0214076E7C
:101DD000FF0E0314086E065007100810D8B406D082
:101DE000E6D70406D89001360236033602BE03D089
:101DF000020E0460F6D704A0029ED890043204506C
:101E000003120550D8A4038E01C001F002C002F0F5
:101E100003C003F0120003AE16D001C007F002C0E9
:101E200008F003C009F0071E081E091E072A000E4D
:101E300008220922000E0724016E000E0820026EFF
:101E4000800E0920036E06AE16D004C007F005C050
:101E500008F006C009F0071E081E091E072A000E1A
:101E600008220922000E0724046E000E0820056EC9
:101E7000800E0920066E000E011A000E021A800E56
:101E8000031A000E041A000E051A800E061A0450DA
:101E9000015C0550025806500358D8B002D0D890C3
:101EA0001200D8801200000E836E000E956E5CEC5E
:101EB00010F020EC12F0030E056E020EC3EC11F0D0
:101EC000030E4C6E8A0E4B6E560EE82EFED74B2E2E
:101ED000FCD74C2EFAD7000E806E010E926E010ECA
:101EE000C26E0E0EC16E890EC06E20EC12F0050E91
:101EF000056E010EC3EC11F0770E406E080E416EB8
:101F000044EC04F00A0E056E020EC3EC11F097ECDF
:101F100010F0800E406E080E416E97EC10F033C04A
:101F200042F034C043F035C044F044EC04F0DFD755
:101F3000FFD7000E0C6E0AAE06D0096C0A1ED8B090
:101F40000A2A010E0C6E08AE06D0076C081ED8B027
:101F5000082A010E0C1A000E0E6E000E0D6E0950AE
:101F60000A10D8B41CD0010E0B6E04D0D8900936DC
:101F70000A360B2A0AAEFAD7D8900D360E3609501B
:101F8000075C0A500858D8A005D00950075E0A50CF
:101F9000085A0D80D8900A3209320B2EEDD70C501A
:101FA000D8B404D00D6C0E1ED8B00E2A0DC007F0A8
:101FB0000EC008F01200000E096E000E0A6E000E30
:101FC0000B6E000E0C6E0550061007100810D8B4EA
:101FD0002AD0010E0D6E06D0D8900536063607368B
:101FE00008360D2A08AEF8D7D89009360A360B36CF
:101FF0000C360550015C0650025807500358085033
:102000000458D8A009D00550015E0650025A075066
:10201000035A0850045A0980D89008320732063211
:1020200005320D2EE1D709C001F00AC002F00BC045
:1020300003F00CC004F01200026E02C001F0010EA9
:102040000116013A83500118EF0B0118836E02C08C
:1020500001F0D8900132010E0116013A0146835079
:102060000118DF0B0118836E02C001F0D890013215
:10207000D8900132010E0116013A01460146835003
:102080000118BF0B0118836E02C001F0D890013215
:10209000D8900132D8900132010E0116013201327E
:1020A000835001187F0B0118836E8382080EE82E7F
:1020B000FED700F0839212008398839A839C839EBC
:1020C000070E066E7D0EE82EFED7062EFCD700F01A
:1020D000030E1CEC10F0070E066E7D0EE82EFED7E8
:1020E000062EFCD700F0030E1CEC10F0070E066E57
:1020F0007D0EE82EFED7062EFCD700F0020E1CEC5B
:1021000010F0C80E00D0E82EFDD7280E036E000E8A
:10211000ABEC11F00C0E036E000EABEC11F020ECEA
:1021200012F0060E036E000EABEC11F0120069EC1B
:1021300011F069EC11F001C009F002C00AF0FFECE7
:1021400011F009C036F00AC037F00BC038F0000EAD
:10215000186EA00E196E400E1A6E36C015F037C0FC
:1021600016F038C017F0C7EC0DF015C024F016C0FB
:1021700025F017C026F0C00E276E7F0E286E440E85
:10218000296E41EC0EF024C036F025C037F026C091
:1021900038F036C033F037C034F038C035F01200B4
:1021A000000E066E02AE06D0016C021ED8B0022AE6
:1021B000010E066E04AE04D0036C041ED8B0042ACF
:1021C00003500410D8B418D0010E056E04D0D89076
:1021D00003360436052A04AEFAD70350015C0450D6
:1021E0000258D8A004D00350015E0450025AD8907F
:1021F00004320332052EF1D70650D8B404D0016C56
:10220000021ED8B0022A01C001F002C002F0120082
:102210000550061007100810D8B424D0010E096E1E
:1022200006D0D8900536063607360836092A08AE95
:10223000F8D70550015C0650025807500358085063
:102240000458D8A008D00550015E0650025A075025
:10225000035A0850045AD890083207320632053221
:10226000092EE7D701C001F002C002F003C003F05D
:1022700004C004F012008E0E116E06D0D8900C32FD
:102280000B320A320932112A000E09140D6E000EAB
:102290000A140E6E000E0B140F6EFF0E0C14106E4F
:1022A0000D500E100F101010D8A4E8D709C001F07F
:1022B0000AC002F00BC003F011C004F0000E056E5E
:1022C000B4EC0EF001C009F002C00AF003C00BF03C
:1022D0001200C2A203D0036A032A01D0036A03508A
:1022E000076E086AC282050EE82EFED700F007507E
:1022F0000810D8A4FCD7C350C4CF03F0046A03C0AD
:1023000004F0036A0310056E0450066E05C001F068
:1023100006C002F012003D503E103F10D8B406D067
:10232000000E3D1A000E3E1A800E3F1A3AC02EF0E3
:102330003BC02FF03CC030F03DC031F03EC032F029
:102340003FC033F04AEC0BF02EC03AF02FC03BF008
:1023500030C03CF01200046E04B002D0839001D073
:102360008380210EE82EFED700F0839203380F0BF6
:102370001CEC10F003500F0B1CEC10F00D0EE82EAF
:10238000FED700F01200066E000E076E0604D8A4F9
:1023900002D0800E076E020E0618D8A402D0C00E1E
:1023A000076E07500524076E07C003F0000EABEC64
:1023B00011F012000F501102F3CF13F0F4CF14F00C
:1023C0000F501202F350142610501102F35014262D
:1023D00013C00FF014C010F01200015002100310CF
:1023E000D8B406D0000E011A000E021A800E031A8D
:1023F00001C001F002C002F003C003F0120009C0E6
:1024000001F00AC002F0036A8E0E046E000E056E23
:10241000B4EC0EF001C009F002C00AF003C00BF0EA
:102420001200036E000E026E3A0E036005D02F0EEE
:10243000036402D0010E026E02C001F001301200EE
:10244000010E036E000EABEC11F0030E056E980E3C
:10245000E82EFED7052EFCD71200056E05C003F04E
:10246000010EABEC11F01200000EF86E000153EFFC
:0C2470000FF0066E06502DEC12F012006A
:020000040020DA
:08000000FFFFFFFFFFFFFFFF00
:020000040030CA
:0E00000000001F1EFF8181FF0FC00FE00F40A8
:00000001FF
